:040000008031102813
:100008007E14803120007F08E4008E31092620000C
:100018006408FF007E10090080311228E501E6011E
:10002800E701E801E901EA01EB01EC01ED01EE016C
:10003800EF012100C101C201C301C401C501C6010C
:10004800C7012300CE01CF01E6308400953085003A
:10005800C8308600003087000030FF000730843148
:10006800F42480313C30840096308500C03086000E
:10007800013087000030FF000E308431F4247E10F8
:1000880020008C31B12C2000C80121004908200033
:10009800D701D707210048082000D601D6075608FF
:1000A80086005708870041310108063A031D0929CF
:1000B80056088600570887000108803A031D092959
:1000C80056088600570887004231403FBD00413F2F
:1000D800BE003E08BF003F08D300560886005708F8
:1000E800870042310108BD003D08D4005308013A99
:1000F800031D9A289E30B0008530B1009E308400E0
:10010800853085000008BD00BE013D08B2003E08EC
:10011800B30056088600570887004631403FB400B0
:10012800413FB500873148278031122B2000530802
:10013800023A031DD12854080319A628963110261F
:100148008031122B20005435CD3E86008701403F78
:10015800CA00413FCB004B08B101B1074A08B001C2
:10016800B0074B08BE004A08BD0002303D078400B6
:100178003E0803183E0A8500003FB200013FB30065
:1001880056088600570887004631403FB400413F73
:10019800B500873148278031122B20005308033AD5
:1001A800031D05295130BD003D08F00054088A316F
:1001B8001322803171082000CD01CD077008CC01D1
:1001C800CC07CD1FEB28963110268031122B20004A
:1001D8005208B101B1075108B001B0074D08B30189
:1001E800B3074C08B201B2075608860057088700C3
:1001F8004631403FB400413FB50087314827803140
:10020800122B963110268031122B200056088600BA
:100218005708870041310108053A031D2229EA01E0
:10022800EA0A560886005708870042310108BD00CF
:100238003D08E9009531ED258031122B2000560844
:1002480086005708870041310108093A031D4129F2
:10025800560886005708870042310108BD003D084E
:10026800C6008E31EE2680319531ED258031200093
:100278004608BD003D08EF00122B560886005708B7
:10028800870041310108083A031D5F296F30B0002B
:100298000030B1000130B2000030B30056088600CB
:1002A800570887004631403FB400413FB5008731C9
:1002B80048278031122B20005608860057088700EF
:1002C80041318108031DEE2956088600570887002A
:1002D80001081F390038031D8829C001C1014030B9
:1002E800B0000030B1000230B2000030B300560850
:1002F8008600570887004631403FB400413FB500AB
:10030800873148278031122B20005608860057086D
:10031800870001081F39023A031DEA29560886009A
:1003280057088700443101080F39BD003D08CE0049
:1003380002304E020318E6290730BD003D08F000E0
:100348004E0896315A268031063EC03E860001305E
:10035800870001082000BE003E08CF00560886002E
:10036800570887004431403FBD00413FBE00BD1BD8
:10037800C0294F080139C2294F080239BD00BE0102
:100388003D08C4003E08C500450844040030031D6C
:100398000130BD003D08C200C3014230B00000304A
:1003A800B1000230B2000030B3005608860057088A
:1003B80087004631403FB400413FB50087314827A8
:1003C8008031122B963110268031122B963110264F
:1003D8008031122B200056088600570887004131CB
:1003E80001080B3A031DFC299531ED258031122BAC
:1003F80020005608860057088700413101080A3A4C
:10040800031D1C2AC7014730B0000030B10001307D
:10041800B2000030B30056088600570887004631FE
:10042800403FB400413FB500873148278031122B47
:100438002000560886005708870041310108013A14
:1004480003192F2A560886005708870041310108EA
:10045800033A031D102BC901C90A5608860057081C
:10046800870001081F39023A031D052B560886002C
:1004780057088700423116000104031D052B560852
:10048800860057088700443101080F39BD003D0830
:10049800D50056088600570887004431010880397E
:1004A800BD003D08D000023055020318052B560840
:1004B80086005708870041310108033A031D722A54
:1004C800500803196C2A55089631DF268031032B12
:1004D800200055089631F9268031032B200050085A
:1004E8000319B52A0730BD003D08F00055089631BC
:1004F8005A268031053EC03E86000130870001083B
:100508002000BE005535BF000130BF35FF3E031D3A
:10051800892A3F35053E203E860087013E08810036
:100528005535BD000130BD35FF3E031D972A3D35C9
:10053800043E203E860087018101F730BD00073068
:10054800BE003E08F000550896315A268031063E16
:10055800C03E86000130870020003D088105FD303F
:10056800F22A0730BD003D08F000550896315A269A
:100578008031043EC03E860001308700010820001B
:10058800BE005535BF000130BF35FF3E031DC82AE8
:100598003F35013E203E860087013E0881008830B5
:1005A800BD005535BE000130BE35FF3E031DD82ABB
:1005B8003E35203E860087013D0881000730BD009A
:1005C8003D08F000550896315A268031063EC03E57
:1005D8008600013087000115FE302000BD0007307D
:1005E800BE003E08F000550896315A268031063E76
:1005F800C03E86000130870020003D0881052000AC
:10060800C901C908031D0C2B9531ED258031122B2A
:10061800963110268031122BC801C80320004808E3
:10062800080021004408073A031D332B4708A1019D
:10063800A1074608A001A0071D30A2008630A3002C
:100648000730A4000030A5008A31922283312100AE
:1006580021082004031D332B9531B82508002100FB
:100668004408083A031D512B4708A101A107460871
:10067800A001A007EC30A2008530A3000830A40038
:100688000030A5008A3192228331210021082004FC
:10069800031D512B9531B3250800210044080E3A5B
:1006A800031D6F2B4708A101A1074608A001A00759
:1006B800B430A2008530A3000E30A4000030A5009D
:1006C8008A3192228331210021082004031D6F2BD7
:1006D8009531C2250800210044080D3A031D8D2BD1
:1006E8004708A101A1074608A001A007C330A2003E
:1006F8008530A3000D30A4000030A5008A31922275
:100708008331210021082004031D8D2B9531BD253F
:10071800080021004408073A031DAB2B4708A10134
:10072800A1074608A001A007FD30A2008530A3005C
:100738000730A4000030A5008A31922283312100BD
:1007480021082004031DAB2B9531C7250800210083
:100758004408073A031DC92B4708A101A107460809
:10076800A001A0070530A2008630A3000730A4002E
:100778000030A5008A31922283312100210820040B
:10078800031DC92B9531CD25080021004408073ADF
:10079800031DE72B4708A101A1074608A001A007F0
:1007A8000D30A2008630A3000730A4000030A50059
:1007B8008A3192228331210021082004031DE72B6E
:1007C8009531D325080021004408073A031D052C5C
:1007D8004708A101A1074608A001A0071530A200FB
:1007E8008630A3000730A4000030A5008A31922289
:1007F8008331210021082004031D052C9531D925BA
:10080800080021004408093A031D3E2C4708A101AD
:10081800A1074608A001A007F530A2008530A30073
:100828000730A4000030A5008A31922283312100CC
:1008380021082004031D3E2C4708B1004608B000DB
:1008480008303007840031080318310A8500000891
:10085800B2003208A9004708B4004608B3000730C0
:100868003307840034080318340A850000089631D9
:100878002F26080021004408093A031D682C470860
:10088800A101A1074608A001A007D130A200853028
:10089800A3000830A4000030A5008A3192228331D9
:1008A800210021082004031D682C4708B1004608D0
:1008B800B00008303007840031080318310A850079
:1008C80000089531FD25080021004408083A031D59
:1008D800862C4708A101A1074608A001A007DA3025
:1008E800A2008530A3000830A4000030A5008A319A
:1008F80092228331210021082004031D862C88318F
:10090800D220080021004408083A031DA42C4708F7
:10091800A101A1074608A001A007E330A200853085
:10092800A3000830A4000030A5008A319222833148
:10093800210021082004031DA42C8A31512208001B
:1009480088313520080021002708B501B507260899
:10095800B401B40720303502003003193402031CF7
:10096800BC2C3508A701A7073408A601A60708006C
:100978003508A8002808B2003408A8002808B300E1
:1009880033088039A800A9013208AA00AB01AA35AA
:10099800AB0D28082A07AC0029082B3DAD002D080F
:1009A8002C040030031D0130AE00AF012E08A0005A
:1009B8002F08A1005030A2000030A3009731C027B3
:1009C800210033087F392007B00021080318210AC5
:1009D800B1003008E03EA6001F30313DA7000800F6
:1009E800FE0012001E000130FE020030FF3B7F08AF
:1009F8007E0403190034F52C1834033449340034C8
:100A08006E34003474340034653400347234003485
:100A1800663400346134003463340034653400349F
:100A280020340034313400343A340334553400343B
:100A38005334003442340034203400345034003409
:100A48006F34003474340034653400346E34003448
:100A580074340034693400346F340034733400342F
:100A68007434003461340034743400342F34003466
:100A780067340034613400346C3400347634003424
:100A8800613400346E3400346F340034733400340D
:100A98007434003461340034743400342C34033436
:100AA800433400346F340034433400346F3400343A
:100AB8006F3400344E34003420340034723400343F
:100AC80065340034733400346534003461340034E0
:100AD8007234003463340034683400342034003411
:100AE80067340034723400346F34003475340034A1
:100AF80070340034093402342034003401340134B1
:100B0800023480343234093404340034003402347A
:100B1800FF3400340034023407340534813402349D
:100B2800403400340134073405340134023440348D
:100B380000340134123401340034023400340034F7
:100B480000340834A034A0340134003401340034B3
:100B580001340234003401340434033409340434D5
:100B680050344F34543445344E34543449344F346B
:100B780053345434413454344934433400344734BE
:100B880041344C34563441344E344F345334543455
:100B980041345434493443340034413444344334C4
:100BA80043344F344E3446342034003441344434D2
:100BB80043345234453441344434333400344134BA
:100BC80044344334523445344134443434340034A6
:100BD800433445344C344C3420344F344634463452
:100BE8000034443441344334533445345434203489
:100BF8000034523441344E3447344534203431348F
:100C08000034523441344E3447344534203432347D
:100C18000034523441344E3447344534203433346C
:100C28000034523441344E3447344534203434345B
:100C38000034433445344C344C3420344F344E342F
:100C480000344F344B3400343F3400343D000E1729
:100C58002100CC01B9010230390203184D2E0430AD
:100C6800B6000730B7003708A000390896318D263E
:100C78008631063EC03E86000130870021003608D6
:100C880081000130B6003608B90702303902031C6A
:100C9800332E2030A0000030A1000030A200003028
:100CA800A3001030A4000030A5009731A227863198
:100CB80021004908A701A7074808A601A60784310B
:100CC800A7248631210027082000A301A3072100BB
:100CD80026082000A201A2070830A10080302100C8
:100CE800B60036082000A00021004B08A701A7077E
:100CF8004A08A601A6078431A724863121002708BF
:100D08002000A701A707210026082000A601A607A2
:100D180008302100B60036082000A500A4012100F3
:100D2800B901B90A023039020318452F0730B60055
:100D38003608A000390896318D268631C03E8600D7
:100D480001308700403F2100A600413FA7008431C1
:100D5800A724863121003935B7000130B735FF3E69
:100D6800031DB22E3735023E203E86008701260835
:100D7800C03F2708C13F0730B6003608A000390831
:100D880096318D268631043EC03E860001308700AC
:100D980001082100B7003935B8000130B835FF3EE9
:100DA800031DD22E3835013E203E860087013708C4
:100DB80081008830B6003935B7000130B735FF3EBD
:100DC800031DE22E3735203E860087013608810054
:100DD8000730B6003608A000390896318D268631CE
:100DE800023EC03E860001308700403F2100A60039
:100DF800413FA7008431A724863121003935B70047
:100E08000130B735FF3E031D052F3735063E203E1E
:100E1800860087012608C03F2708C13F0730B60073
:100E28003608A000390896318D268631053EC03E29
:100E380086000130870001082100B7003935B80065
:100E48000130B835FF3E031D252F3835053E203EBD
:100E580086008701370881003935B6000130B6357C
:100E6800FF3E031D332F3635043E203E86008701A2
:100E780081010130B6003608B90702303902031C77
:100E88009A2E3D000E13080000302000330208306F
:100E980003193202031C552F0830B6000030B70082
:100EA8005B2F3308B701B7073208B601B607360813
:100EB800FA007A08BC003C08FA00FB0135087B02FE
:100EC800031D682F34087A02031C712F3508B901F5
:100ED800B9073408B801B807782F3C08FA00FB01B5
:100EE8007A08B8007B08B9003808FA007A08BC000C
:100EF80035083302031D822F340832020030031CE8
:100F08000130FA007A08EE0021004A0886004B08F2
:100F18008700200030088400310885003C30FA0042
:100F280012001E00FA0B942F20003C08FA00FB0167
:100F38007A0830072300CE007B082000313D2300CB
:100F4800CF00200033083502031DAC2F32083402CD
:100F5800031CB32F3308BB01BB073208B72F350872
:100F6800BB01BB073408BA01BA073C08FA00FB0109
:100F7800FA09FB09FA0A0319FB0A3A087A07E50095
:100F88003B087B3DE6002100CC1520003C08FA0018
:100F9800FB017A08F6007B08F70088317C200800FE
:100FA8002100A700963124268731D13089310221CA
:100FB800873189319E2187312100A60027088600C4
:100FC80087012608810089319E2187312100A600EA
:100FD8002408860087012608810089313621873157
:100FE8002100A60025088600870126088100963181
:040FF800C626080001
:101000002100A1002135A0000130A035FF3E031DC5
:1010100005282035043E203E86008701010D010D84
:101020000139080025302100A7008630A8004208B9
:10103000A101A1074108A001A0072808A301A30757
:101040002708A201A20797316727883121002808C5
:10105000A101A1072708A001A0079731DE272100E1
:101060002008A6002608C500080028302100A70097
:101070008630A8004208A101A1074108A001A007ED
:101080002808A301A3072708A201A2079731672711
:10109000883121002808A101A1072708A001A00785
:1010A0009731DE2721002008A6002608C500080089
:1010B0002100A6000730A5002508A00026089631CB
:1010C0008D268831C03E860001308700210024082B
:1010D00084008501403F803F413F813F2635A50088
:1010E0000130A535FF3E031D71282535013E203E08
:1010F0008600870101080800003096314A268831B1
:101100000038031D080000302100CC190130F80020
:101110007808F9002000A4017908031995287608B9
:10112000F8007808A500C8309A287608F8007808F2
:10113000A5008830F8007808A4000830F800780886
:101140002100CC060800F7000730F4007408F00016
:10115000770896315A268831053EC03E8600013018
:1011600087000108F5007735F6000130F635FF3EBF
:10117000031DB6287635053E203E8600870175089A
:1011800081008430F4007735F5000130F535FF3EFD
:10119000031DC6287535043E203E8600870174086D
:1011A00081000800AB302100A8002808A400AC3062
:1011B000A9002908A500AA308731D42721004108B9
:1011C0008600420887002A0881004108013EA800E5
:1011D0000030423DA90028088600290887002B0816
:1011E00081004108023EA8000030423DA9002808C5
:1011F0008600290887002C0881000330A8002808F1
:10120000C50008002100A1000830A0002008A200AD
:101210002108A0002008A30022000D1321000D13B7
:10122000A31F14290D16182922000D1221000D12DA
:101230002130A000A00B1A2921000D172130A00099
:10124000A00B202903102100A30D0130A202A20847
:10125000031D0E290D132130A000A00B2D29210004
:101260000D172130A000A00B332908002100A20196
:101270000830A0002008A10022000D1321000D1647
:101280000D132130A000A00B432921000D172130A0
:10129000A000A00B492903102100A20DFE30A000E0
:1012A0002008A20520000D1E57292100221401301C
:1012B0002100A102031D40290D132130A000A00B25
:1012C0005F2921000D172130A000A00B6529210006
:1012D000220808002100A800963124268931D13047
:1012E00089310221893189319E2189312100A7006C
:1012F0002808860087012708810089319E218931CD
:101300002100A70024088600870127088100893171
:101310009E2189312100A700250886008701270822
:1013200081008931362189312100A70026088600F5
:101330008701270881009631C62608002100A201F6
:101340000830A0002008A10022000D1321000D1676
:101350000D132130A000A00BAB2921000D17213067
:10136000A000A00BB12903102100A20DFE30A000A7
:101370002008A20520000D1EBF29210022140130E3
:101380002100A102031DA8290D1322000D12210026
:101390000D122130A000A00BCB2921000D17213008
:1013A000A000A00BD1292100220808002100490833
:1013B0002000DA01DA07210048082000D901D90706
:1013C000590886005A0887000030811B0130EC0064
:1013D0009531DF2589312000A41FF3290830FD0055
:1013E0007D08A500A401660865040319FA29963151
:1013F000062689312000590886005A088700010E08
:10140000890C03390038031D0E2A803147208931A9
:10141000FD007D082000D800D81F102A9631102624
:101420003D000E120800F300F308031D232A700884
:1014300086008701B030C03F8530C13F0430F000E6
:101440000030F10008007308013A031D332A7008C8
:10145000860087015230C03F8530C13F2C30F000FC
:101460000030F10008007308023A031D432A700897
:10147000860087011830C03F8530C13F3A30F00008
:101480000030F10008007308033A031D4C2AFF30B6
:10149000F000FF30F1000800FF30F000FF30F100F5
:1014A0000800AD302100A9002908A400AE30AA0030
:1014B0002A08A500AF30AB002B08A600AC3089315C
:1014C0006A218A31210041088600420887002C08E1
:1014D00081004108013EA9000030423DAA002908D0
:1014E00086002A0887002D0881004108023EA900D5
:1014F0000030423DAA00290886002A0887002E08ED
:1015000081004108033EA9000030423DAA0029089D
:1015100086002A0887002F0881000430A9002908C6
:10152000C500080001302100A4020030A53BFF30B7
:101530002506031D9D2AFF3024060319D72A210002
:1015400020088400210885000008003A0319B62A03
:1015500022088400230885000008A60020088400D3
:1015600021088500000826060319CE2A22088400D7
:10157000230885000008A600A701A609A709A60A56
:101580000319A70A200884002108850000082607FF
:10159000A00027080318270AA10008000130A007AF
:1015A0000030A13D0130A2070030A33D922AA001E6
:1015B000A10108007708FB01FB077608FA01FA078A
:1015C00020307B02003003197A02031CEE2A7B08CC
:1015D000F701F7077A08F601F60708007B082000F4
:1015E000B0003008F8007A08B0003008F900790837
:1015F0008039B000B1017808B200B301B235B30D43
:1016000030083207B4003108333DB50035083404E2
:101610000030031D0130B600B7013608F00037086E
:10162000F1005030F2000030F30097314A2779087A
:101630007F3970072000B80071080318710AB900DB
:101640003808E03EF6001F30393DF7000800200062
:101650002108F1007108F5006C08013A031D332BD5
:1016600096310626080020006D0803190800750849
:10167000F100F20166087202031D402B6508710239
:10168000031C492B6608F401F4076508F301F3070E
:10169000502B7508F100F2017108F3007208F40094
:1016A0007308F1007108F6006D08860087012100BB
:1016B00048088400490885007630F10012001E00B9
:1016C000F10B5E2B7608F10071082000ED0776081B
:1016D000F100F2017108E5027208E63B083075027C
:1016E000031C762B66086504031D08007508760246
:1016F0000318812B963110268B3196310626200057
:1017000008009531ED25200008002100AB002000E5
:101710006F080319080021002B0896317C268B31B5
:1017200000380319952B2000080021002B35A80054
:101730000130A835FF3E031D992B2835043E203E7D
:10174000A9002908AC000730A8002808A0002B0831
:1017500096318D268B31063EC03E860001308700D3
:101760000030811901302100A9002908AA002C08A5
:101770008600870181012A080319C72B2608A800C3
:101780002C0A8600870128088100C830CF2B260844
:10179000A8002C0A86008701280881008830A8004C
:1017A0002C0886008701280881000830A80007302F
:1017B000A9002908A0002B0896318D26063EC03EC0
:1017C00086000130870021002808810620000800DB
:1017D0003D0011109110920197018E1511161115EF
:1017E000901190119011901190019215921612146F
:1017F0009830F0000E30F1000030F2000030F300BD
:101800001030F4000030F50097312D278B313D006A
:10181000181698111815981418102000BF01BF0A47
:1018200002303F0203183F2C3F08983EBD00BE0126
:101830000E30BE3D3D08C0003E08C1004008860095
:10184000410887000116400886004108870081157D
:1018500040088600410887000115400886004108BD
:10186000870081144008860041088700011001307C
:10187000BD003D08BF0702303F02031C142C3D0091
:1018800096012000EA01EF018E31EE268B31963170
:1018900006262100121508003D001110911092013A
:1018A00097018E151116111590119011901190112C
:1018B000900192159216121498302100A0000E305B
:1018C000A1000030A2000030A3001030A4000030BE
:1018D000A5009731A2278C313D00181698111815D4
:1018E000981418102100BC01BC0A02303C020318F5
:1018F000A42C3C08983EBA00BB010E30BB3D3A0810
:10190000BD003B08BE003D0886003E08870001166A
:101910003D0886003E08870081153D0886003E0888
:10192000870001153D0886003E08870081143D08A8
:1019300086003E08870001100130BA003A08BC0753
:1019400002303C02031C792C3D0096012000EA0184
:10195000EF0186312A268C3196311A262100121584
:1019600008003C302100990423008C018D018E0178
:1019700022009D0121008C1222008C1221000C12E9
:1019800022000C1221008E01043022008E0027005C
:101990001B169B170B178B178C314C248C319531F0
:1019A000B0258C31003A0319CF2C013096319F2697
:1019B0008C31003A0319CF2C013096317C268C31C2
:1019C0000038031D112D0130883100208C31003882
:1019D000031DE32CC6302100BF003F08A4000130E6
:1019E000883158208C312100C0004008C4000130EB
:1019F0009631B2268C3121002508C201C207240885
:101A0000C101C107833115238C3121004508BF0076
:101A1000C0013F08A6004008A70001308B31852394
:101A20008C3101308D3189258C31CF2C20006A0812
:101A300003191F2D69083D0096002000EA01660881
:101A400065040319722D003066020830031965021F
:101A5000031C2F2D0830B0000030B100352D660872
:101A6000B101B1076508B001B0073008FA007A0883
:101A7000B20021004A0886004B08870023004E0868
:101A800084004F08850020003230FA0012001E004A
:101A9000FA0B462D20003208FA00FB017A08E50215
:101AA0007B08E63B3208FA00FB017A082300CE07E8
:101AB0007B08CF3D200066086504031D682D3208B1
:101AC000083A031D682D6E080319682DEB01EB0A17
:101AD0003208FA00FB017A08F6007B08F70088312B
:101AE0007C20080020006B080319822D0030F600CE
:101AF0000030F70088317C208D312000EB019631D9
:101B0000062608002000EC08031D08009631062672
:101B100008002100A8000730A4002408A00028081D
:101B200096318D268D31063EC03E860001308700FD
:101B30000030011901302100A5002508A700270861
:101B40000319CA2D0730A4002408A00028089631E4
:101B50008D268D31043EC03E86000130870001088D
:101B60002100A5002835A6000130A635FF3E031D43
:101B7000B52D2635013E203E8600870125088100CF
:101B8000C830A4002835A5000130A535FF3E031D4F
:101B9000C52DF12D0730A4002408A0002808963197
:101BA0008D268D31043EC03E86000130870001083D
:101BB0002100A5002835A6000130A635FF3E031DF3
:101BC000DD2D2635013E203E860087012508810057
:101BD0008830A4002835A5000130A535FF3E031D3F
:101BE000ED2D2535203E8600870124088100043034
:101BF000A4000730A5002508A000280896318D26EE
:101C0000063EC03E86000130870021002408810680
:101C100008003D00101C112E8B31E8238E313D0051
:101C20001010901E482E01302000E1000030E2002C
:101C30006208803ADB0080305B02031D212E0230F7
:101C400061020318462E98302000DB000E30DC00C5
:101C500061085B07DD0062085C3DDE005D08DF00B7
:101C60005E08E0005F088600600887000110013010
:101C7000E1070030E23D6208803ADB0080305B0221
:101C8000031D442E02306102031C232E3D009012DE
:101C90009019921DE72E0F0C2000DB00DB0C5B0C73
:101CA0000F390038031D7A2E3D000F197A2E2000BF
:101CB000200C890C0F39DB005B08E30063080D3A48
:101CC000031D662E8931D6218E31762E20006308C1
:101CD000093A0319762E6308013A031D732E8B31DE
:101CE00027238E31762E963110268E319531F525AB
:101CF0008E31E52E3D000F0C2000DB00DB0C5B0C71
:101D00000F390038031D8B2E3D000F1D8B2E8D319A
:101D100016258E31E52E3D000F0C2000DB00DB0C7C
:101D20005B0C0F39003A0319E52E3D000F0C200023
:101D3000DB00DB0C5B0C0F39DC0002305C020318AB
:101D4000E52E3D000F1DC52E07302000DB005B088F
:101D5000F0003D000F0C2000DC00DC0C5C0C0F39A7
:101D600096315A268E31063EC03E860001308700ED
:101D7000811CE52E3D000F0C2000DB00DB0C5B0C12
:101D80000F398831A3208E31E52E07302000DB008B
:101D90005B08F0003D000F0C2000DC00DC0C5C0C4C
:101DA0000F3996315A268E31063EC03E86000130EC
:101DB0008700011CE52E3D000F0C2000DB00DB0C32
:101DC0005B0C0F39973184278E313D009011101B29
:101DD00010132000121D0800121108003D000E17FC
:101DE0002100CC01FC0102307C020318122F0430C8
:101DF0002000BA000730BB003B08F0007C08963199
:101E00005A268E31063EC03E8600013087002000F3
:101E10003A0881000130BA003A08FC0702307C021F
:101E2000031CF72E2030F0000030F1000030F200EB
:101E30000030F3001030F4000030F50097312D270A
:101E40008E3121004908F701F7074808F601F60727
:101E50008A31DA228E3177082000A301A3077608A1
:101E6000A201A2070830A1008030BA003A08A00001
:101E700021004B08F701F7074A08F601F6078A31F7
:101E8000DA228E3177082000A701A7077608A6017D
:101E9000A6070830BA003A08A500A401FC01FC0A14
:101EA00002307C020318FD2F0730BA003A08F00018
:101EB0007C0896315A268E31C03E8600013087005C
:101EC000403FF600413FF7008A31DA228E317C35FF
:101ED0002000BB000130BB35FF3E031D6B2F3B359F
:101EE000023E203E860087017608C03F7708C13F4A
:101EF0000730BA003A08F0007C0896315A268E3135
:101F0000043EC03E86000130870001082000BB006F
:101F10007C35BC000130BC35FF3E031D8B2F3C35AA
:101F2000013E203E860087013B0881008830BA00D0
:101F30007C35BB000130BB35FF3E031D9B2F3B357D
:101F4000203E860087013A0881000730BA003A082F
:101F5000F0007C0896315A268E31023EC03E860043
:101F600001308700403FF600413FF7008A31DA2216
:101F70008E317C352000BB000130BB35FF3E031D98
:101F8000BD2F3B35063E203E860087017608C03FC8
:101F90007708C13F0730BA003A08F0007C08963154
:101FA0005A268E31053EC03E86000130870001086A
:101FB0002000BB007C35BC000130BC35FF3E031D5A
:101FC000DD2F3C35053E203E860087013B08810021
:101FD0007C35BA000130BA35FF3E031DEB2F3A3590
:101FE000043E203E8600870181010130BA003A0894
:101FF000FC0702307C02031C542F3D000E13080026
:102B600020006F08080022000C1288311220080093
:102B700022000C1688311220080022008C168831A1
:102B80001220080022008C12883112200800043024
:102B900022008E00883112200800083022008E00AA
:102BA000883112200800103022008E008831122057
:102BB0000800203022008E008831122008000830E2
:102BC000F00070082000A500A40108008034203423
:102BD0008834203400347E3485342000A401A501DB
:102BE000C830F0007008A400080008302000A100E0
:102BF0008030F0007008A00008002100A90029081A
:102C000096316B2695318831122008002300CE01C1
:102C1000CF012000ED01E501E601E701E801080030
:102C20000830F00070082000A5008430F000700823
:102C3000A40008002300CE01CF012000ED01E50132
:102C4000E601E701E801080021000D1722000D123E
:102C500021000D122130A000A00B2C2E0800210015
:102C6000AB002908AA002A08A4002B0897311327D3
:102C700096318831122008000034003400340034CA
:102C800000340034003490342034D03420344034C4
:102C900040340034F5000730F4007408F000750883
:102CA00096315A26063EC03E860001308700010854
:102CB00002390800F200F301721C622E7008F10064
:102CC0007108F3070310F00D0310F20CF208031D56
:102CD0005C2E730808002100A4009631242696314A
:102CE000D030893102219631210024088931022116
:102CF00096319631C62608002100A5000730A400B1
:102D00002408A000250896318D26063EC03E860088
:102D1000013087000108023908002100A300A20148
:102D2000231C962E2008A1002108A2070310A00D45
:102D30000310A30CA308031D902E220808002100F5
:102D4000A1002135A0000130A035FF3E031DA42EB7
:102D50002035203E860087010310811F03140030B8
:102D6000093D08002100A7000730A6002608A000A2
:102D7000270896318D26023EC03E8600013087002E
:102D8000403F2100A400413FA500080022000D1390
:102D900021000D1322000D1221000D122130A00080
:102DA000A00BD02E21000D172130A000A00BD62E95
:102DB00021000D162130A000A00BDC2E0800F90028
:102DC0007908031908000230790203180800073057
:102DD000F8007808F000790896315A269631063EB8
:102DE000C03E860001308700811479088831A32015
:102DF0000800F50075080319080002307502031871
:102E000008000730F4007408F000750896315A265F
:102E10009631063EC03E86000130870001147508D9
:102E20009731842708002100A50096312426973188
:102E30003A308931022197310130893102219731AD
:102E40002100250889310221973121002408893188
:102E5000022197319631C62608007108F701F7075D
:102E60007008F601F6070130F4020030F53BFF3040
:102E70007506031D3D2FFF30740603190800760800
:102E8000860077088700720881000130F60700305D
:102E9000F73D332FF401F501701C522F7208F4072F
:102EA0007308F53D0130F235F30D890B532F0130D6
:102EB000F136F00C890B582F71087004031D4C2F4C
:102EC0007508F101F1077408F001F007080021000E
:102ED0002108A501A5072008A401A407240886004D
:102EE0002508870022088400230885000008C03FC9
:102EF0008908031908000130A4070030A53D0130FE
:102F0000A2070030A33D6E2FF2007235F0000130B1
:102F1000F035FF3E031D882F7035013E203E8600B0
:102F2000870181018430F0007235F1000130F13504
:102F3000FF3E031D972F7135203E860087017008E4
:102F40008100080021002108A701A7072008A60189
:102F5000A6070130A4020030A53BFF302506031D63
:102F6000B32FFF302406031908002608860027081F
:102F70008700220881000130A6070030A73DA92F55
:102F80002100A401A501201CC92F2208A4072308A1
:102F9000A53D0130A235A30D890BCA2F0130A13602
:102FA000A00C890BCF2F21082004031DC32F250857
:102FB000A101A1072408A001A00708002100210801
:102FC000A501A5072008A401A4072408840025085A
:102FD0008500000800380319F22F0130A4070030E3
:102FE000A53DE52F2009A2002109A300A20A03198B
:102FF000A30A24082207A0002508233DA1000800F9
:020000040001F9
:04000E00A4CFCFDFCD
:00000001FF
